{
  "contractName": "KTechToken",
  "abi": [
    {
      "constant": true,
      "inputs": [],
      "name": "totalSupply",
      "outputs": [
        {
          "name": "",
          "type": "uint256"
        }
      ],
      "payable": false,
      "stateMutability": "view",
      "type": "function"
    },
    {
      "inputs": [],
      "payable": false,
      "stateMutability": "nonpayable",
      "type": "constructor"
    }
  ],
  "bytecode": "0x608060405234801561001057600080fd5b50620f4240600081905550609e806100296000396000f300608060405260043610603f576000357c0100000000000000000000000000000000000000000000000000000000900463ffffffff16806318160ddd146044575b600080fd5b348015604f57600080fd5b506056606c565b6040518082815260200191505060405180910390f35b600054815600a165627a7a72305820a2a75996e9442c6369f5525e7260305de32a427eb201294d5c55a77960208ab60029",
  "source": "pragma solidity ^ 0.4.17;\n\ncontract KTechToken {\n\n    uint256 public totalSupply;\n    \n    // Constructor\n    function KTechToken() public {\n        totalSupply = 1000000;\n    }\n\n    // Set the total number of tokens\n\n    // Read the total number of tokens\n}\n",
  "sourcePath": "/Users/bdoherty/projects/blockchain/smart-contract-dev/ethereum/token-sale/kostka-tech-ico/contracts/KTechToken.sol",
  "compiler": {
    "name": "solc",
    "version": "0.4.24+commit.e67f0147.Emscripten.clang"
  },
  "schemaVersion": "2.0.1",
  "updatedAt": "2018-09-24T19:15:34.252Z"
}